:020000041500E5
:1000000000000A24ED030015351C0000F91C000057
:100010000D1D00001D1D00002D1D00000000000032
:100020000000000000000000000000003D1D000076
:10003000411D000000000000610400150D050015C1
:1000400061040015610400156104001561040015C8
:1000500061040015610400156104001561040015B8
:1000600061040015610400156104001561040015A8
:100070006104001561040015610400156104001598
:100080006104001561040015610400156104001588
:100090006104001561040015610400156104001578
:1000A0006104001561040015610400156104001568
:1000B0006104001561040015610400156104001558
:1000C0006104001561040015610400156104001548
:1000D0006104001561040015610400156104001538
:1000E0006104001561040015610400156104001528
:1000F0006104001561040015610400156104001518
:100100006104001561040015610400156104001507
:1001100061040015000000000000000061040015EB
:1001200061040015610400156104001561040015E7
:1001300061040015610400156104001561040015D7
:1001400061040015610400156104001561040015C7
:1001500061040015610400156104001561040015B7
:1001600061040015610400156104001561040015A7
:100170006104001561040015610400156104001597
:100180006104001561040015610400156104001587
:100190006104001561040015610400156104001577
:1001A0006104001561040015610400156104001567
:1001B0006104001561040015610400156104001557
:1001C0006104001561040015491D0000611D000057
:1001D00061040015610400156D1D0000851D0000FF
:1001E0006104001561040015610400156104001527
:1001F0006104001561040015610400156104001517
:100200006104001561040015610400156104001506
:1002100061040015610400156104001561040015F6
:1002200061040015610400156104001561040015E6
:1002300061040015610400156104001561040015D6
:1002400061040015610400156104001561040015C6
:100250006104001561040015000000006104001530
:1002600061040015610400156104001561040015A6
:100270006104001561040015610400156104001596
:100280006104001561040015610400156104001586
:100290006104001561040015610400156104001576
:1002A0006104001561040015610400156104001566
:1002B0006104001561040015610400156104001556
:1002C0006104001561040015610400156104001546
:1002D000610400156104001500000000000000002A
:1002E0006104001561040015610400156104001526
:1002F0006104001500000000610400156104001590
:100300006104001561040015610400156104001505
:1003100061040015610400156104001561040015F5
:10032000610400156104001561040015000000005F
:1003300000000000000000000000000000000000BD
:1003400061040015610400156104001561040015C5
:1003500061040015610400156104001561040015B5
:1003600061040015610400156104001561040015A5
:100370006104001561040015610400156104001595
:100380006104001561040015610400156104001585
:100390006104001561040015610400156104001575
:1003A0006104001561040015610400156104001565
:1003B0006104001561040015610400156104001555
:1003C0006104001561040015610400156104001545
:1003D0006104001561040015610400156104001535
:1003E0006104001561040015451D00001348854691
:1003F00000F05CF812481349134A002302E0D45875
:10040000C4500433C4188C42F9D310481049114A1F
:10041000002302E0D458C4500433C4188C42F9D3EA
:100420000D4A0E4C002301E013600432A242FBD3BC
:1004300000F076F800F070F8FEE7000000000A24F3
:100440000004000088870000280500150000022431
:10045000A4010224B0880015A40102240442082447
:10046000FEE70000704700BF10B50C4B04469847EC
:100470002C2801D1A04200D110BD094BC3F8804205
:10048000BFF34F8F0749084BCA6802F4E062134379
:10049000CB60BFF34F8F00BFFDE700BF010FF01F20
:1004A0000050105100ED00E00400FA05144B4FF02D
:1004B000A85120201A6942F0100200B51A6183B0D9
:1004C0009960FFF7D1FF0F4B0F4A196D0191019908
:1004D00021F00F010191019941F00401019101996D
:1004E0001965196C019101990A400192019A42F42F
:1004F00000120192019A1A6403B05DF804FB00BF78
:1005000000ED00E000100358FF7700F008B5FFF79A
:10051000A9FF08BD000000005FF800F0291B0000E3
:080520005FF800F0E172000039
:1005280010B5054C237833B9044B13B10448AFF325
:1005380000800123237010BDA401022400000000E4
:100548004483000008B5034B1BB103490348AFF3CC
:10055800008008BD00000000A801022444830000B8
:1005680081F0004102E000BF83F0004330B54FEA5C
:1005780041044FEA430594EA050F08BF90EA020FC9
:100588001FBF54EA000C55EA020C7FEA645C7FEA5C
:10059800655C00F0E2804FEA5454D4EB5555B8BF7F
:1005A8006D420CDD2C4480EA020281EA030382EAF0
:1005B800000083EA010180EA020281EA0303362D82
:1005C80088BF30BD11F0004F4FEA01314FF4801C55
:1005D8004CEA113102D0404261EB410113F0004F67
:1005E8004FEA03334CEA133302D0524263EB43031E
:1005F80094EA050F00F0A780A4F10104D5F1200EBC
:100608000DDB02FA0EFC22FA05F2801841F1000116
:1006180003FA0EF2801843FA05F359410EE0A5F1EA
:1006280020050EF1200E012A03FA0EFC28BF4CF01B
:10063800020C43FA05F3C01851EBE37101F00045D1
:1006480007D54FF0000EDCF1000C7EEB00006EEBDE
:100658000101B1F5801F1BD3B1F5001F0CD3490868
:100668005FEA30004FEA3C0C04F101044FEA4452BF
:1006780012F5800F80F09A80BCF1004F08BF5FEA46
:10068800500C50F1000041EB045141EA050130BD26
:100698005FEA4C0C404141EB0101013C28BFB1F538
:1006A800801FE9D291F0000F04BF01460020B1FA83
:1006B80081F308BF2033A3F10B03B3F120020CDA56
:1006C8000C3208DD02F1140CC2F10C0201FA0CF034
:1006D80021FA02F10CE002F11402D8BFC2F1200C99
:1006E80001FA02F120FA0CFCDCBF41EA0C0190404F
:1006F800E41AA2BF01EB0451294330BD6FEA040498
:100708001F3C1CDA0C340EDC04F11404C4F1200282
:1007180020FA04F001FA02F340EA030021FA04F394
:1007280045EA030130BDC4F10C04C4F1200220FAEB
:1007380002F001FA04F340EA0300294630BD21FA29
:1007480004F0294630BD94F0000F83F4801306BFEF
:1007580081F480110134013D4EE77FEA645C18BFE3
:100768007FEA655C29D094EA050F08BF90EA020F7A
:1007780005D054EA000C04BF1946104630BD91EA72
:10078800030F1EBF0021002030BD5FEA545C05D175
:100798004000494128BF41F0004130BD14F58004B4
:1007A8003CBF01F5801130BD01F0004545F0FE4128
:1007B80041F470014FF0000030BD7FEA645C1ABF5D
:1007C800194610467FEA655C1CBF0B46024650EA94
:1007D800013406BF52EA033591EA030F41F40021C0
:1007E80030BD00BF90F0000F04BF0021704730B546
:1007F8004FF4806404F132044FF000054FF000011B
:1008080050E700BF90F0000F04BF0021704730B5DB
:100818004FF4806404F1320410F0004548BF4042B0
:100828004FF000013EE700BF42004FEAE2014FEA05
:1008380031014FEA02701FBF12F07F4393F07F4FE0
:1008480081F06051704732F07F4208BF704793F0E3
:100858007F4F04BF41F40021704730B54FF46074F6
:1008680001F0004521F000411CE700BF50EA0102F9
:1008780008BF704730B54FF000050AE050EA0102A2
:1008880008BF704730B511F0004502D5404261EB12
:1008980041014FF4806404F132045FEA915C3FF453
:1008A800D8AE4FF003025FEADC0C18BF03325FEAF0
:1008B800DC0C18BF033202EBDC02C2F1200300FAA1
:1008C80003FC20FA02F001FA03FE40EA0E0021FAC6
:1008D80002F11444BDE600BF4A0011D212F500121D
:1008E80011D20DD56FF47873B3EB62520ED44FEA80
:1008F800C12343F0004343EA505323FA02F0704700
:100908004FF00000704750EA013002D14FF0FF303D
:1009180070474FF00000704753B94AB9002908BF23
:1009280000281CBF4FF0FF314FF0FF3000F074B9C2
:10093800ADF1080C6DE904CE00F006F8DDF804E02E
:10094800DDE9022304B070472DE9F047089E0D4603
:1009580004468846002B4DD18A42944668D9B2FA9B
:1009680082F252B101FA02F3C2F1200120FA01F138
:100978000CFA02FC41EA030894404FEA1C45210C9A
:10098800B8FBF5FE1FFA8CF705FB1E8341EA03430B
:100998000EFB07F199420BD91CEB03030EF1FF3054
:1009A80080F01E81994240F21B81AEF1020E634431
:1009B8005B1AA4B2B3FBF5F005FB103344EA034419
:1009C80000FB07F7A7420AD91CEB040400F1FF3328
:1009D80080F00881A74240F2058164440238E41B94
:1009E80040EA0E4000211EB1D4400023C6E900436E
:1009F800BDE8F0878B4208D9002E00F0EE80002178
:100A0800C6E900050846BDE8F087B3FA83F1002976
:100A18004AD1AB4202D3824200F2F980841A65EBD4
:100A2800030301209846002EE2D0C6E90048DFE71C
:100A380002B9FFDEB2FA82F2002A40F09180A1EBFF
:100A48000C054FEA1C471FFA8CFE0121B5FBF7F392
:100A580007FB1350250C45EA00450EFB03F0A8429E
:100A680008D91CEB050503F1FF3802D2A84200F2B1
:100A7800CB8043462D1AA4B2B5FBF7F007FB1055FF
:100A880044EA05440EFB00FEA64508D91CEB040405
:100A980000F1FF3502D2A64500F2BB802846A4EB40
:100AA8000E0440EA03409EE7C1F120078B4022FA7A
:100AB80007FC4CEA030C20FA07F405FA01F31C437F
:100AC800FD404FEA1C4900FA01F3B5FBF9F8200C88
:100AD8001FFA8CFE09FB185540EA054508FB0EF085
:100AE800A84202FA01F20BD91CEB050508F1FF3AFE
:100AF80080F08880A84240F28580A8F10208654409
:100B08002D1AA4B2B5FBF9F009FB105544EA0545C6
:100B180000FB0EFEAE4508D91CEB050500F1FF34BD
:100B28006CD2AE456AD90238654440EA0840A0FB59
:100B38000294A5EB0E05A542C846A64656D353D047
:100B48005EB1B3EB080265EB0E0505FA07F722FA6A
:100B580001F3CD401F43C6E900750021BDE8F087C9
:100B6800C2F1200320FA03F10CFA02FC25FA03F380
:100B780095400D434FEA1C471FFA8CFEB3FBF7F173
:100B880007FB11302B0C43EA004301FB0EF098429F
:100B980004FA02F408D91CEB030301F1FF382FD241
:100BA80098422DD9023963441B1AADB2B3FBF7F052
:100BB80007FB103345EA034500FB0EF3AB4208D9A7
:100BC8001CEB050500F1FF3816D2AB4214D90238E8
:100BD8006544ED1A40EA014138E73146304607E7F7
:100BE8008646E5E61846FAE64B45A9D2B9EB02086F
:100BF80064EB0C0E0138A3E74046EAE7204694E789
:100C08004146D1E7D0467BE7023B654432E70846D8
:100C180009E76444023842E7704700BF000000005B
:100C280001F0FF01102A2BDB10F0070F08D010F895
:100C3800013B013A8B422DD010F0070F42B3F6D199
:100C4800F0B441EA012141EA014122F007047FF0B2
:100C580000070023F0E80256083C85EA010586EA09
:100C6800010685FA47F5A3FA87F586FA47F6A5FA45
:100C780087F68EB9EED1F0BC01F0FF0102F0070251
:100C880032B110F8013B013A83EA010313B1F8D1FC
:100C98000020704701387047002D06BF35460338DD
:100CA800073815F0010F07D1013015F4807F02BF16
:100CB800013015F4C03F0130F0BC0138704700BF67
:100CC800F0B595B005460C4617460021442202A807
:100CD8001E4606F0C7FB4AF208204FF0FF3344F0E7
:100CE800005400FB05F501A91393082305F10C0036
:100CF80001940B4C8DF808301A9B20448DF80B702A
:100D08008DF810608DF8113000F0F8FE28B92C44E9
:100D18004AF2EC12A3580133A35015B0F0BD00BF3E
:100D2800C401022410B501219CB0344A0023344C7C
:100D3800002002912170CDE90023324A002304F0FB
:100D4800B3F901282AD004A804F09CFB0E9B1BBB16
:100D58002D4B1B682D4A5020136004F04DFB50208A
:100D680004F084FB002004F01FFB002004F026FBA5
:100D7800002004F04BFB002004F054FB002004F09A
:100D880027FB002004F02EFB002004F057FB002076
:100D980004F060FB1CB010BD9B08DBE71B4B4FF455
:100DA80000201B4A1A6004F01DFA002004F024FBFE
:100DB800002004F05BFB4FF4007004F0F5FA4FF4E8
:100DC800007004F0FBFA4FF4007004F01FFB4FF4BE
:100DD800007004F027FB4FF4007004F0F9FA4FF4A8
:100DE800007004F0FFFA4FF4007004F027FB4FF492
:100DF80000701CB0BDE8104004F02CBB00A02526F4
:100E0800C00102240090D0030C0102240000022437
:100E180000B4C404024A034B10601960704700BF55
:100E28006C14072470140724024B1B7803B1704715
:100E3800FFF778BFC0010224F8B51C4B1B780BB92B
:100E4800FFF770FF00231A491A4A1B4C1B4F1C4E10
:100E58001C4D0B601360A11960194C23202200F06F
:100E68002BFE194919484C2321444FF400722044A1
:100E780000F022FE002304222370E36184F820306E
:100E8800A387C4E90133C4E90322C4E90533C4E9EB
:100E98000933C4E90B33C4E90D33C4E9103304F54D
:100EA80022440834BC42D6D1F8BD00BFC001022498
:100EB800641407246814072484A30224C4B30724F1
:100EC800585EFFFF405EFFFFD867FFFF4C5EFFFFE5
:100ED800014B1868704700BF00000224072814D887
:100EE80099B10A4B4AF208228C4602FB003000B541
:100EF8004AF2981E8644BCE80F00AEE80F00DCF802
:100F08000030CEF800305DF804FB7047C4010224BD
:100F1800072814D899B10A4B4AF208228C4602FBDA
:100F2800003000B54AF2AC1E8644BCE80F00AEE8BB
:100F38000F00DCF80030CEF800305DF804FB704795
:100F4800C4010224072807D8044B4AF2082C4AF2A5
:100F5800E4120CFB00308150704700BFC40102242A
:100F6800072800F200814AF208234AF2C0122DE94C
:100F7800F04FCE4DA7B0044603FB00539A5C1AB15C
:100F8800012027B0BDE8F08F4AF2E0114AF2E412DE
:100F9800DFF81CA34FEA8009595C9F5800EB8003D7
:100FA800029101210AEBC30B5AF833609BF8043015
:100FB800DBF80800002B40F0D88004F099F9DBF842
:100FC8000C0004F045F9BB4B01219E4209EB0403D8
:100FD8000AEBC30358691B6A40EA030000F0418129
:100FE80004F096F9A1440BA803F0BCFD4FF0000BE8
:100FF8000AEBC9094FF001080BA94AF2BC1AB9F863
:101008001820D9F810000B9299F81A20CDF83C80D6
:1010180010920222CDE90DBB0C9203F067FC0BA8DD
:1010280003F0A0FDB9F82430D9F81C000BA90B93E4
:1010380099F82630CDF838B01093CDF83C80CDE93A
:101048000CB803F053FC594668220CA806F00AFABB
:101058004AF208234AF298114AF2A41203FB0453F5
:1010680053F801B04AF29C119A5858584AF2A01104
:1010780053F801E04AF2A81153F801C04AF2AC1142
:10108800595888464AF2B011595803914AF2B41196
:1010980053F801904AF2B811595853F80A301AB166
:1010A800BCF1000F40F0E080032304210A224FF036
:1010B800140A272089469C4696464FF4407B17F031
:1010C800010FCDF82CB05CD04FF0200BCDF830B02C
:1010D800042CCDE91131784BCDE913A9CDE90DC226
:1010E80028BF9946754A764B38BF9146754A28BF3E
:1010F8009A46029B38BF9246CDF8549093F0010867
:101108004AF20823CDE90F0E03FB045334D0DAF872
:1011180000204AF2DC1116925A5087F0080704EBB7
:10112800C4030BA93046C7F3C00704EB43038DF88B
:101138009470654F07EB830324931223CDE91E3384
:10114800CDE920330123CDE917338DF896303023CC
:1011580019930823239302F009FF012819D00020CE
:1011680027B0BDE8F08F0020704704F0A1F8DBF845
:101178000C0004F04DF826E74AF2DC129B5816934F
:10118800CBE717F0020FA3D04FF0A00BCDF830B08B
:101198009EE7139A30460132114603F095F930461E
:1011A80003F09CF9B8F1000F09D04C2303FB047736
:1011B8007B6AA3EB09094FEA9903CAF800304FF09C
:1011C800000801274FF0004940F2FF7304A9304698
:1011D8000993CDF81890CDF820800797CDE90488B9
:1011E80003F0E2F84FF0804304A9304604936FF00F
:1011F8006043CDF818900993CDF81480CDE90778AD
:1012080003F0D2F84346414630464246CDF80080C6
:1012180003F036F942463046402103F03BF93046A8
:101228004FF4702103F044F93946304603F046F98B
:10123800304603F059F94AF208204AF2E0124AF21D
:10124800C01300FB04543846A7544AF2CC12E754A2
:101258004AF2D01344F8028044F8038027B0BDE86E
:10126800F08F04F065F8BDE6BEF1000F18BF002B43
:1012780058440CBF4FF0010A4FF0000A002908BF7C
:101288004AF0010ABAF1000F7FF40EAF00283FF4CC
:101298000BAFC246DDF80C80C244B9F1000F3FF431
:1012A80003AFBAF1000F3FF4FFAE06E7C401022412
:1012B80098830000000C0D40004005300000053008
:1012C800681407246414072404120724072800D983
:1012D80070470B4B00EB800210B5044653F8320000
:1012E80003F008F907484AF208214AF2C01300221D
:1012F80001FB0404E2544AF2CC130422E25010BD6C
:1013080098830000C4010224072807D831B14AF2A3
:101318000822034B02FB003000F0F0BB00207047AE
:10132800C4010224072807D831B14AF20822034B26
:1013380002FB003000F002BC00207047D0010224FC
:101348002DE9F04FB7B0DFF820B200F041FC874B31
:1013580082460793002306930CE0069B0BF5224B6D
:10136800079A01330BF1080B2832082B06930792D2
:1013780000F08F829BF800309DF81890002BECD07D
:10138800079B4021D3F80080404603F093FABBF84E
:101398003C30834206D24FF6FF73984228BF184666
:1013A800ABF83C00724B5B441846049300F09AFB80
:1013B800B0F5FF7F00F26A8240F2FF131B1A9BB25E
:1013C8000393802305934021404603F073FA0746B0
:1013D800002800F0E080BBF83C30834206D24FF68C
:1013E800FF73834228BF0346ABF83C30059B0024BB
:1013F80013AE9F4228BF1F464FE0B3F5802F00F081
:10140800D48140F28280B3F5C02F00F0C881B3F5D3
:10141800E02F40F0848007252A460F9B8DF89050D6
:10142800B3F5001F02D102238DF891300E9BB3F55E
:10143800801F05D19DF8913043F004038DF8913059
:101448000D9BB3F1004F05D19DF8913043F008038F
:101458008DF8913031460DF1920005F0F5FF4FF00F
:10146800FF3323A93593434B1D683DB1424B524688
:10147800484602911B68A847029958B9039B002B5C
:101488007CD0049800F03AFB002877D0039B013BFE
:101498009BB203930134A74278D0334609AA40216E
:1014A800404603F0D7F80128054640F0E081DBF814
:1014B80034304822002124A80133CBF8343005F019
:1014C800D1FF099BB3F1804F0A9B00F05A81C3F307
:1014D8000A030B9AB2F1005F08BF43F080432393DD
:1014E8000C9BB3F5002F00F0638186D9B3F5402F2C
:1014F80000F0588127D9B3F5602F00F04D81B3F57E
:10150800702F19D140252A4687E7B3F5003F00F030
:101518004081B3F5403F09D103252A467DE7B3F55D
:10152800A02F40F05A8205252A4676E7B3F5803F7A
:1015380040F05382012270E7B3F5502F40F04D82FE
:1015480020252A4669E7B3F5202F00F01F81B3F55F
:10155800302F02D114252A465FE7B3F5102F40F04B
:101568003C820C252A4658E784A30224988300006D
:101578004C5EFFFF6C14072470140724DBF8283036
:1015880001340133A742CBF8283086D1059BDB1BF9
:1015980005937FF418AF0821404603F09DF9012810
:1015A80000F0A681DBF8403023B1AAEB0303B3F5C2
:1015B800FA6F7AD313A94046CBF840A003F044F958
:1015C80009A9404603F066F9189A0A99099B802AE6
:1015D800CBF80410CBF8083000F0D081169A202AF6
:1015E80000F0DF81179A402A00F0A8810022CBF88A
:1015F8000C20DBF810204AB1009148464022042113
:10160800FFF75EFBDBF80C30CBF81030139C002C96
:1016180041D0072C3FD0DBF81430A3423BD0012C3B
:1016280000F0BB81022C00F0CD81032C00F0A281D8
:10163800042C00F0CA81052C00F0CB81A4F106042B
:10164800A94F0025B4FA84F464090021442224A88F
:1016580023AE05F007FFDBF80830314604988DF813
:101668009830DBF8043023978DF8993008238DF8EB
:1016780094408DF890304FF0FF338DF895503593A6
:1016880000F03CFA20B9DBF82C300133CBF82C30D1
:10169800139BCBF81430149B3BB1B3F5E06F04D027
:1016A800DBF818209A4240F0F780404603F00EF924
:1016B800054600283FF451AE8C4F23AE5F443146B7
:1016C800384600F03BFA00283FF447AE239C14F05C
:1016D8000059F4D1242249460DEB020005F0C2FE60
:1016E800002CC0F2CC80C4F30A030A93640804F007
:1016F80000540B949DF89040402C5CD8DFE814F01F
:101708006B00A200A50034013701F000AB00B10066
:10171800AE005B005B005B0093005B005B005B005E
:1017280096005B005B005B009C005B005B005B005D
:1017380099005B005B005B005B005B005B005B008B
:101748009F005B005B005B005B005B005B005B0075
:101758005B005B005B005B005B005B005B005B00A9
:10176800A8005B005B005B005B005B005B005B004C
:101778005B005B005B005B005B005B005B005B0089
:10178800B40023F0604343F00043A2E610252A4644
:1017980043E602252A4640E630252A463DE6062548
:1017A8002A463AE618252A4637E604252A4634E624
:1017B80008252A4631E60C2C35D9102C36D9142C9C
:1017C8003AD9182C35D9202C39D9302C8CBF4FF464
:1017D80070294FF460299DF891304022CDF830905F
:1017E8000DF14C0999041B05484601F4801103F4D6
:1017F80000130E9100210F9305F034FE402C224671
:101808000DF19201484628BF402205F01DFE4A46C8
:1018180009A9404602F0CAFE012840F08A80013D2D
:101828007FF44DAF99E54FF41029D4E74FF4202900
:10183800D1E74FF44029CEE74FF43029CBE74FF4F6
:101848005029C8E74FF48039C5E74FF40039C2E79B
:101858004FF46029BFE74FF4C029BCE74FF40029D3
:10186800B9E74FF4E029B6E74FF47029B3E7DBF89E
:1018780038307A4201330592CBF83830A3E54FF07F
:101888008043099324F060430A932FE700230393CE
:1018980097E537B0BDE8F08F0021442224A823AE95
:1018A80005F0E0FDDBF80830049831468DF89830F3
:1018B800DBF804308DF899300B4B239308238DF80F
:1018C80090304FF0FF33359300F018F920B9DBF86A
:1018D8002C300133CBF82C30149BCBF81830E4E6CD
:1018E8004FF4A02977E700BF08000020405EFFFF03
:1018F8000821404602F0F8FFDBF8303041F2873229
:101908000133CBF83030DBF84430AAEB03019142C5
:1019180002D8002B7FF446AEDBF804300122042104
:1019280048460093DBF80830CBF844A0FFF7C8F925
:1019380038E63146384600F0E1F80EE50122CBF8EA
:101948000C20DBF81020012A3FF460AE602934BF78
:10195800002204225F2B01D942F008020091484678
:101968000421FFF7ADF94DE64FF4403933E74FF462
:10197800802930E71A4F1925002466E60322CBF8A0
:101988000C20DBF81020032A3FF440AE00914846B3
:1019980000224021FFF794F934E6124F0025042471
:1019A80053E60222CBF80C20DBF81020022A3FF481
:1019B8002DAE802934BF002210227F2BCED942F0D1
:1019C8002002CBE7074F00253FE6064F00251024ED
:1019D8003BE6044F0025082437E600252A461CE587
:1019E8002800002008000020072822D810B449B198
:1019F800124C4AF2082C0CFB004C4AF2CC145CF84E
:101A080004400C6042B14AF208240C4904FB00115E
:101A18004AF2C414095911606BB14AF20824074A02
:101A28004AF2C81104FB0022012010BC52581A6067
:101A3800704700207047012010BC7047C401022481
:101A4800B9B3072870B54FF000060C460E604E601B
:101A58008E60CE600E614E618E6100D970BD4AF213
:101A68000822144B02FB00F01D180C3018444AF2EF
:101A7800E813EB580B604AF2EC13EB584B604AF250
:101A8800F013EB588B6000F02DF84AF2F8134AF285
:101A9800F4120221EB58AA5863614AF2FC1322613E
:101AA8003022EB5AA673A081E173E676A2762383EF
:101AB80070BD7047C401022410B400248280C38022
:101AC8000460816010BC70470388828801334088B5
:101AD8009BB29A4298BF0023C01AB0FA80F040091E
:101AE800704700BF03884288934204D28088184414
:101AF800801A80B27047981A80B2704710B50446B1
:101B08000088431CB4F804C062889BB29C4598BF07
:101B180000239A420FD0E288A36802FB003005F048
:101B280093FC23880120A28803449BB29A4298BF61
:101B38000023238010BD002010BD00BF4388028809
:101B48009A4210B5044610D0E2880846A16802FB04
:101B5800031105F079FC63880120A28803449BB235
:101B68009A4298BF0023638010BD002010BD00BFBB
:101B7800114BD3F8FC20D20105D4D3F8FC2042F055
:101B88008072C3F8FC200D4B00220D495A601A6878
:101B980042F001021A600B681BB90A4901230B6065
:101BA8007047094A0948A2FB03C2064983424FEA23
:101BB80092420A60F2D9704700ED00E0001000E0A0
:101BC8000C0102247414072483DE1B433F420F00D8
:101BD800034A044B50681B68B0FBF3F0704700BF22
:101BE800001000E074140724431E012B27D8002A94
:101BF8002DE9F041904613DD4C1E124EA71814F83B
:101C0800015F0A2D0FD04FF480710E4803F034FFA6
:101C18000028F8D02946304603F02AFFBC42EED10E
:101C28004046BDE8F0814FF48071064803F024FF78
:101C38000028F8D00D21304603F01AFFE3E74FF0F3
:101C4800FF30704700C4004080B54FF4806290B008
:101C580000214FF0A85002F079F8022703F08CFD1C
:101C680001214FF00040072403F052FB0121082016
:101C78004FF4007603F05CFB01214FF000400D4665
:101C880003F006FB03A802F06DFF03A92848089497
:101C98000595CDE9036702F029FE4FF4806303A997
:101CA80023480393089400240497059502F01EFE28
:101CB80009A803F0C7FE4FF4E13309A91D48CDE98F
:101CC80009340623CDE90B440D93CDE90E4403F006
:101CD80021FE2946174803F0C1FE62B6FFF748FF08
:101CE800154A1649164805F0C5FB00F0F5F9FFF747
:101CF8009BF8042003F0F4F8204603F049FB29463A
:101D08004FF4004003F014FB29464FF4000003F0A1
:101D1800DFFA29460B4D304602F070FF0A4B0B4A9A
:101D280021460B48009505F049F801F0C7FCFCE78F
:101D38000028035800C40040D8840000E484000050
:101D4800F0840000EC000224A80002246C000224A5
:101D580078140724704700BF04461F481F4D08B574
:101D680005F00EFC21681E4805F084FB61681D48DB
:101D780005F080FBA1681C4805F07CFBE1681B4866
:101D880005F078FB21691A4805F074FB6169194868
:101D980005F070FBA169184805F06CFBE16917486C
:101DA80005F068FBA96A164805F064FBE96A15485E
:101DB80005F060FB296B144805F05CFBE96B1348E0
:101DC80005F058FB696B124805F054FBA96B1148E4
:101DD80005F050FBFEE700BF0885000000ED00E0BD
:101DE80020850000308500004085000050850000F7
:101DF80060850000708500008085000090850000E7
:101E0800A0850000B0850000C0850000D0850000D6
:101E1800E0850000F08500001EF0040F0CBFEFF312
:101E28000880EFF30980FFF797BF00BF024808B5A5
:101E380005F0A6FBFEE700BF00860000024808B5D3
:101E480005F09EFBFEE700BF18860000024808B5B3
:101E580005F096FBFEE700BF2C860000704700BF28
:101E6800704700BF704700BF302008B501F0F8FF89
:101E78000248BDE8084004F03FBE00BF78140724BC
:101E8800014804F04BBB00BF78140724312008B583
:101E980001F0E6FF0248BDE8084004F02DBE00BF8F
:101EA80078140724014804F039BB00BF78140724CC
:101EB800122301480B8070470400022404230148C0
:101EC8000B8070472400022410B5044C0A460448CD
:101ED800214605F06BFA204610BD00BFD41A07242E
:101EE8004486000003280A4604490CBF04480548F4
:101EF80008B505F05BFA014808BD00BFD41A0724ED
:101F0800648600007486000010B5044C0A46044834
:101F1800214605F04BFA204610BD00BFD41A07240D
:101F28008486000010B5044C0A460448214605F092
:101F38003DFA204610BD00BFD41A0724948600003D
:101F48005E4A422370B5157882B00B805C4B002D39
:101F58005ED05C4D03F110019C461A4628680026A5
:101F68004FEA107EB0F1204FD67002F102020EF156
:101F7800370438BF0EF1300491424FEA0010147054
:101F8800EED1686800264E4A4FEA107EB0F1204F25
:101F9800D67402F102020EF1370438BF0EF1300494
:101FA8008A424FEA00101474EED1A8680026444A09
:101FB8004FEA107EB0F1204F82F8236002F102024E
:101FC8000EF1370438BF0EF130048A424FEA001090
:101FD80082F82040ECD1EA680025140FB2F1204FB6
:101FE80083F8335003F1020304F1370038BF04F1DA
:101FF80030008B424FEA021283F83000EDD19CF892
:1020080000302F488DF807309DF8073002B070BDBA
:1020180003F110019C461A462B484FEA107EB0F196
:10202800204FD57002F102020EF1370438BF0EF1CD
:10203800300491424FEA00101470EED1204A002576
:1020480022484FEA107EB0F1204FD57402F1020207
:102058000EF1370438BF0EF1300491424FEA0010F8
:102068001474EED1164A00251948040FB0F1204F18
:1020780082F8235002F1020204F1370E38BF04F14E
:10208800300E91424FEA001082F820E0EDD1114A5B
:1020980000244FEA127EB2F1204F83F8334003F157
:1020A80002030EF1370038BF0EF1300099424FEAB3
:1020B800021283F83000ECD1A1E700BFD31B07243C
:1020C80028000224D41B072478563412F0DEBC9A68
:1020D800DF9B5713E0AC68240023012030B5254C62
:1020E80083B0254DC4E900332B70C4E9023303F0F3
:1020F800BFF801210A2003F03BF902F03DFD01A9D8
:102108004FF4407002F04CFD032803D002F040FD6C
:1021180003B030BD019B01A94FF44170236002F068
:102128003FFD0328F2D1019B01A94FF4427063607F
:1021380002F036FD0328E9D1019B01A94FF4437051
:10214800A36002F02DFD0328E0D1019B2268E36023
:102158004AB11340D4E901120B4013400133D5D0E2
:1021680001232B70D2E7D4E901120B431343F7D1B3
:10217800CCE700BFD41B0724D31B07242023014826
:102188000B8070478800022430B583B00A4D04469E
:1021980004F09AFE094B0DF10601ADF80600284639
:1021A800DB6898474FF400732A460221204604F062
:1021B80001F9002003B030BDE81B0724D800022431
:1021C800012901D00020704708B501F049FA002024
:1021D80008BD00BF30B50A7883B00B46054612F03B
:1021E800600417D0402C1AD1C98801B3120631D423
:1021F800264A1868596803C2DA88802A3DD8244BD1
:102208001A80244B0124244928461C70002404F019
:102218001FFE09E04A780A2A15D00B2A04D019466D
:102228002846022405F0B4F8204603B030BD1B4C04
:1022380018460DF10602ADF80610A3680C4698473B
:10224800204603B030BD0122154904F0E9FD2046BF
:1022580003B030BD802915D8ADF806100F4C0DF12C
:10226800060218460C49A36800249847BDF80620C2
:102278000949284604F0D4FDD6E7802304491A46C4
:102288000B80BEE78022ADF80620E7E76C1E072426
:10229800681E07246A1E0724E81D0724D8000224A4
:1022A800E41B072438B5094A0024094B0546812157
:1022B80014601C7004F060F80221284604F05CF8F1
:1022C800044B5B689847204638BD00BF781E07243A
:1022D800741E0724D800022438B50D4A00250D4B7A
:1022E800812110604FF400721D700223044604F02F
:1022F80013F802234FF400722046194604F00CF834
:10230800054B1B689847204601F0ACFB284638BDB2
:10231800781E0724741E0724D80002240B4B1A7851
:102328008AB10B49002010B5098882B0094C187091
:102338000DF10602ADF80610A46807490748A04742
:10234800002002B010BD0020704700BF6A1E07249D
:10235800681E0724D8000224E81D07246C1E0724E1
:10236800202301480B80704788000224084B186816
:1023780068B110B5074C237803B110BD4FF4007352
:10238800054A022104F016F80123237010BD704796
:10239800781E0724741E0724E81B0724144B1549CC
:1023A8001B8830B50C889BB2A2B293421DD241F271
:1023B8004C041C44A41AA4B20B889BB29CB1002202
:1023C8000D4D41F24B0E04E0734588BF0023644570
:1023D80009D9581C0132E95C1FFA82FC83B2002932
:1023E800F2D0002030BD012030BD9C1AA4B2E3E732
:1023F800CC480724CE4807247C380724402830D806
:10240800DFE800F02222222222222222222F2F2F4E
:10241800232F2F2F252F2F2F272F2F2F292F2F2FE8
:102428002F2F2F2F212F2F2F2F2F2F2F2F2F2F2FC2
:102438002F2F2F2F2B2F2F2F2F2F2F2F2F2F2F2FA8
:102448002F2F2F2F2D000D207047092070470A20AD
:1024580070470B2070470C2070470E2070470F20E4
:1024680070470C28F1D91028F1D91428F1D9182867
:10247800F1D92028E7D9312834BF0E200F20704722
:1024880038B5144A00241449144B154D15482C70BE
:102498000C8021461C8013680460204601331360B9
:1024A800FEF7B8FC1049114A1148124B0C70147011
:1024B8001C801149114A124B047012480C700460B8
:1024C80014701C701049114A114B0C7014601C6078
:1024D80038BD00BFC8480724CC480724CE48072485
:1024E800D4480724D0480724E51F0724E61F0724FB
:1024F800E41F0724E81F0724F6210724F0200724F7
:10250800F8480724DC480724F048072408890724EA
:102518000489072438B54FF4007252232449002453
:102528002448A025FFF7C8FA52234022224923480D
:10253800FFF7C2FA224B2349012223481A702A4680
:102548000C70214604F08EFF2A4621461F4804F0ED
:1025580089FF1F4B214620221E48C3E9004404F08E
:1025680081FF1D4A1D481E4B04804FF4FA601C80F1
:102578001C4913680C7001331B49136008801B4BFE
:102588001B491C600C801B481B4A1C491C4B0C60D7
:1025980021461C70047014701A481B4B1B4A0470A7
:1025A80014601B481C60BDE83840FEF733BC00BF10
:1025B800909D0724AC41082410890724A0410824D1
:1025C800E51F0724E61F07241C1F07247C1E072479
:1025D800DC1F0724BC1F0724C8480724CC4807244D
:1025E800CE480724E41F0724E8000224EC1F072430
:1025F800E81F0724F6210724F0200724DC480724D5
:10260800F8480724F0480724048907240889072480
:10261800CD260000F8B5174A0646174B1D881388C3
:10262800A8B29DB2A84219D241F24C0303445B1BE5
:102638009CB210888C4241F24C03104F28BF0C46C4
:1026480081B230465B1A39449DB2A54228BF25465F
:102658002A4604F0F9FEAC4203D8F8BD401B84B208
:10266800E7E7641B39467019A2B2BDE8F84004F0E8
:10267800EBBE00BFCE480724CC4807247C3807248B
:102688002DE9F0411C46574B94B088461978074607
:1026980016461C9D01B314F002026DD03046FFF7B8
:1026A800ADFE514B287200F00F00C5F804804FF0C2
:1026B80000086F721F5C4FF0FF33AC7285F80B8017
:1026C800BCB22B60002F72D110343D441B9B2046B6
:1026D800EB6014B0BDE8F08114F0020326D1082A9B
:1026E800029324F002041A9928BF08228DF80900E1
:1026F80003A88DF80A408DF808206E46CDF80480AE
:102708001824CDE903334FF0FF33009304F09CFE07
:102718001B9B05930FCE28606960AA60EB6003CE0F
:1027280028612046696114B0BDE8F081442202A8FE
:1027380004F098FE4FF0FF333046CDF80480009344
:10274800FFF75CFE402E32461A9928BF40228DF8CA
:10275800080003A88DF80A408DF80970502404F089
:1027680073FE1B9B502269462846139304F06CFEA7
:10277800204614B0BDE8F08124F00204082E4FF082
:10278800FF33C5F80480AC72344628BF0824687249
:10279800EA722C722B60F6B904F10C0310341B9A00
:1027A800E4B2DBB22046EA5014B0BDE8F081A6429C
:1027B8001A9905F10C0028BF2646324604F044FE5B
:1027C800B44281D9A21B0C36414692B215FA86F062
:1027D80004F048FE78E722461A9905F10C0004F047
:1027E80033FED9E7E41F0724A886000011B1184B6F
:1027F8001B780BB90020704770B505469AB015488C
:102808000C461646FFF760F910B100201AB070BDEB
:10281800234601960DF11602284653F8061B02922C
:10282800009363792279FFF72BFF034605A909482E
:10283800ADF81430FFF762F90028E7D10649074AD6
:102848000B6801330B60136801331360DEE700BFC8
:10285800E61F0724AC410824904108249441082429
:1028680030B129B12DE9F8430D8815B9BDE8F883D1
:1028780070470446254E26483288038892B299B29A
:102888008A4239D241F24C0313445B1A9BB241F29B
:102898004B02934224D8D31A9BB29D4220D8B6F853
:1028A800008041F24C02DFF86C9021461FFA88F84C
:1028B800A2EB080209EB080097B2AF4228BF2F46E7
:1028C8003A4604F0C1FDBD4219D8454441F24B03D4
:1028D800ADB29D4202D9104B2B449DB23580C5E75D
:1028E8000E4C00210E4A2368013323603180018099
:1028F800136801331360B9E7531A9BB2C7E7EA1BA1
:10290800E119484692B204F09FFDDEE7CC4807245F
:10291800CE4807247C380724B4EFFFFF0C8907242E
:10292800C848072400287DD0F0B590F900309FB042
:102938000C461546002B0FDB29B3002A73D01688E6
:10294800437885780A2B1ED8DFE803F01B513A1D1F
:102958001D1D1D1D1D1D1F00A9B1A2B1437886783C
:10296800043B0B2B61D8DFE813F0560142016D01DF
:1029780060006000600060002001600060001101DC
:102988008100032E54D81FB0F0BD072DFBD8132E9D
:10299800F9D9206805EB8501B44A02EB810342F8B6
:1029A8002100616828465960A1689960E168D9608A
:1029B800194624691C611FB0BDE8F040FEF7A8BAAB
:1029C800072DE0D8072EDED92368012B00F04081BF
:1029D8002846FEF77BFC0021A54A2846A54B515501
:1029E80043F825101FB0BDE8F040FEF7ABBA072D3D
:1029F800C9D8132EC7D9206805EB85019E4A02EB7A
:102A0800810342F82100616828465960A1689960ED
:102A1800E168D960194624691C611FB0BDE8F0401F
:102A2800FEF75CBA7047C6888AE700232B80AAE7BE
:102A38002268924B9A42A6D1914D2B78002B00F038
:102A4800638101230B2E2B709DD9A388012B9AD16A
:102A5800E2882389D20796D5002B94D0B3F5FA6F74
:102A6800884A38BF4FF4FA6313808CE76622002146
:102A780004A804F0F7FC844B84481B680393FFF711
:102A880031F807468248FFF72DF8824B4FF4107251
:102A980000211B780744ADF81220003B7E4A8DF8D0
:102AA800311040F2FF1118BF01231288ADF81070E1
:102AB8008DF8303092B2794BADF8322002F2FF1225
:102AC8001B688A420D93764B1B680E93754B1B68E7
:102AD8000F93754B1B681093744B1B6811934FF43D
:102AE8000073ADF864304FEA522300F00A81C8221F
:102AF80002FB03F341F2883203F5FA63934238BFCD
:102B080013469BB26A4AADF8663013786949003BB0
:102B1800694A097818BF012312788DF868300023B4
:102B2800C91A8DF86930ADF86C3018BF0121D21A76
:102B3800179318BF01221893604B072E8DF86B204E
:102B48005F4A8DF86A101268CDF86E205D4A1268E7
:102B58001B68CDF8722012935B4A5C4B12681B68A5
:102B6800CDE913235A4A5B4B12681B68CDE915233C
:102B780040F2C2802E886A2E00F2BB8026B132460F
:102B880003A9204604F060FC2E80FCE60023072EF3
:102B9800CDE90133039340F29F8019461A4622601B
:102BA8000C226160A3602A80EDE6FEF791F943F2FA
:102BB8009B5201234FF4807122608022A3606261DE
:102BC800A2614FF40072E160226240222164482130
:102BD8002361E3616362A3622363E2622022E36309
:102BE8006364102360606263A3632980CBE60023DB
:102BF8000722ADF80C308DF80E3003AB8DF80F209E
:102C08004FF48032CDE9042207CB0C2320606160A9
:102C1800A2602B80B7E6FEF75BF943F29B51802256
:102C2800012321604FF480716261E1604FF400710B
:102C3800A26128226060A3602361E361216263626C
:102C48002A80A0E6FEF7C4FF042320602B809AE6C2
:102C5800084B2846626843F825206168FEF772F938
:102C68002846FEF77DF9024B58558CE67C1E072452
:102C7800DC1F0724BC1F07241C1F07244753553299
:102C8800E41F0724E800022490410824AC410824EA
:102C9800A0410824D4480724E84807240049072409
:102CA800D8480724F4480724E4480724FC480724A4
:102CB800E0480724F8480724F048072494410824EA
:102CC8000889072404890724984108249C4108247A
:102CD8000C890724DC48072403AB02AA01A9304663
:102CE800FEF782FE184B9B5D53B3039BDDE9012180
:102CF80055E76A22164643E705A93046FEF7A0FEC7
:102D080038E741F28833FDE6104A114F1380114A23
:102D180038681380104A1370104A1370104A1360F1
:102D2800104A136030B1812100F0B0FE812138686B
:102D380003F0D8FB00230C4A13700C4A137080E68A
:102D4800DDE9021304222AE7DC1F0724E81F072411
:102D5800D0480724F421072478370724F6210724CC
:102D6800AC410824A0410824D4480724E14807249A
:102D78002DE9F04FD7B0BC4DFEF72AFFDFF8ECB2D3
:102D88000023DFF8EC9200900193FEF721FF009BEF
:102D9800C01AC72865D82E68BBF80030B9F800807B
:102DA8009BB21FFA88F8434572D241F24C021A448A
:102DB800A2EB08081FFA88F8B8F10B0F51D90C21BB
:102DC80004A8FFF727FC2B689E42DED1DFF8A4A2F7
:102DD8009DF81A709AF8003007F00207002B5CD0B3
:102DE800002F6DD19DF81840082C28BF08240C34FA
:102DF800E4B2A04557D8A04533D30DF11C082146AD
:102E08004046FFF707FC2B689E42BED198F8093070
:102E1800072B5DD92B689E42B7D1BBF80020B9F8C3
:102E2800003092B299B28A4280F0ED8041F24C03B0
:102E380013445B1A9BB2A3420BD3B9F8003014FABF
:102E480083F441F24B03A4B29C4200F2B780A9F884
:102E5800004001230193FEF7BBFE009BC01AC72860
:102E680099D9019B8BB1814D814C2A88238892B2D4
:102E780099B28A4280F00A8141F24C0313445B1AEA
:102E88009BB2013B0A2B40F2078157B0BDE8F08F97
:102E9800A3EB08081FFA88F88EE7002F14BF4C240C
:102EA8001424A045A7D9FFF779FA0028A3D0002356
:102EB800ABF80030A9F800302B6801332B60D0E75D
:102EC8009DF818306C4A03F00F03D45C0C3490E77B
:102ED800442200211BA8039304F0C4FAD8F8042064
:102EE80098F80A301A92D8F8002002938DF86D30BD
:102EF8002C92039B002F51D098F808205E4902F0CD
:102F08000F028A5C8DF86C20002A40F09980029AA2
:102F180042F002028DF86D2018461AA9FEF7F4F95E
:102F280098F80970FEF754FE9AF800308646002B90
:102F38006CD198F80A309B0744D432902DAB0DF130
:102F4800280A0DF1C00E1F464FF0180C98E807002C
:102F580083E807009AE803008EE803000FCFCDF856
:102F68000601CDF80A11CDF80E21CDF8123103CFA4
:102F7800CDF81601CDF81A1141A94048ADF804C1A1
:102F8800FEF7BCFD00287FF445AF3D493D4A0B687C
:102F980001330B601368013313603BE798F808109E
:102FA80008290A4628BF08228DF86C2000294ED12E
:102FB800029A22F002028DF86D20ADE7324B2344CD
:102FC8009CB244E798E807000DF1B40A0DF1280C0B
:102FD80030AF8AE80700BCE80F000FC7BCE80F0055
:102FE8000FC7BCE80F000FC79CE80F0087E80F0069
:102FF800514650220DF58370CDF800E104F024FA13
:103008004FF0500CB8E7531A9BB214E7D8F80430C5
:103018004FF0100C8DF80F71CDF80A3198F8083080
:10302800CDF812018DF80E3198F80A308DF810316C
:10303800D8F80030CDF8063101238DF811319BE71F
:103048000AA90DF16E0004F0FFF9039B5FE70AA9D6
:103058000DF16E00039304F0F7F9029A039B22F036
:1030680002028DF86D2057E7C8480724CC4807248A
:10307800CE480724E41F0724A8860000A04108249E
:103088009041082498410824B4EFFFFF531A9BB2DB
:10309800013B0A2B3FF6F9AEFFF780F900283FF411
:1030A800F4AE0023034A2B80238013680133136096
:1030B800EBE600BFC848072410B50C4C23783F2B1B
:1030C8000BD8014652220A4803F1010C02FB030007
:1030D80084F800C004F0B8F910BD0649064A0B6828
:1030E80001330B6013680133136010BDF621072408
:1030F800F8210724904108249C410824AD4B2DE970
:10310800F04F1B789BB0002B40F08481AA4B1B78B2
:10311800002B00F0C780A94B1878002840F0AD813B
:103128000290A74E3488B4F5804F74D20DF114087C
:10313800A44FDFF894A2DFF894923B78002B00F0BC
:10314800ED80013B52224046DBB202FB03913B700B
:1031580004F07AF9BDF81450002D58D00F2D40F224
:10316800D8809DF81F30072B00F2D3809DF82000EF
:103178009DF81E3080079DF8211040F110810F2B1B
:1031880000F2C78011F0010040F01181904CE35C1F
:1031980010339D4240F0BD80DDF816305A1C00F017
:1031A800B580092B00F2B580002800F0B280348881
:1031B80004EB050BBBF5804F00F27281002C40F048
:1031C800D380029A0DF11601824BDFF80CB21A6017
:1031D8002A46824B82481C808BF8004004F034F960
:1031E80028464FF0010C21467E4B358083F800C0FD
:1031F8007D4B23F811407D4B23F81150C0F3080391
:10320800002B40F0A0808BF80030744B1880348875
:10321800B4F5804F91D3B4F5804F754B34BF00227D
:1032280001221B881146002B40F009816B4B1D8839
:103238000293B5F5007F28BFAC428CBF012400245F
:1032480000F29081644B3588664F0193694B1B7877
:10325800002B40F04381684A6B1E01219BB211701C
:1032680043F6FE72934204D8C5F30803002B00F01E
:103278007581524B0021614A1B781170002B40F078
:1032880021815F4A2B4681211068554A03F0C4F812
:103298000023029A33801380019A3B7013701BB08D
:1032A800BDE8F08F484805A9FEF748FC002800F063
:1032B800DC80BDF8144001224F4B0DF11601B4F526
:1032C800804F25461A7028BF4FF4804544482A4647
:1032D80004F0BAF8394B1B78002B40F08981611E45
:1032E80043F6FE7389B2994205D8C5F3080313B9AA
:1032F8000123304A13704149002441482B460C7081
:103308008121374A006803F087F819E000293FF463
:103318004EAF3C4A13680133136078E74146504684
:10332800FEF70CFC00287FF415AF41463648FEF73F
:1033380005FC00287FF40EAF3488002C7FF46BAFB7
:103348001BB0BDE8F08F9BF900109BF800300029F6
:10335800FFF65DAF2D4921F813402D4921F8135090
:1033680001338BF8003052E71D480DF116011D4B53
:103378002A462044019304F067F8019B1FFA8BF05A
:10338800DFF854B093F900C01978BCF1000F308011
:10339800FFF634AF01F1010C5FFA8CFC26E7082B2D
:1033A800B7D811F0010002D11033DBB2F1E61023D7
:1033B800EFE600BFF8480724E41F0724E61F0724A8
:1033C800E81F0724F6210724A0410824F821072430
:1033D800A8860000EC1F072478370724F421072467
:1033E80004490724F0200724F4200724F01F0724A9
:1033F800E8000224E0480724D4480724F0480724BA
:10340800D0480724DC480724AC4108247C3707242B
:103418007836072401237D487D4900227D4C0978B0
:10342800227003707C48037059BB7C4800237C4A97
:10343800812100681BB0BDE8F04F02F0EDBF79486C
:10344800029D0068281A984238D3002A7FF4EEAE0D
:10345800754B1D880293B5F5007FBFF4EAAE44F6BC
:103468001F6398423FF6EEAE6AE705A96F48FEF77C
:1034780065FB00283FF464AF1BE7FEF7A9FB029049
:103488004FE66B4B1A80FEF7A3FB6A496A4B6B4AFF
:1034980018600B6801330B60136801331360C4E7CD
:1034A8004046FFF709FE002C3FF44AAF644B012267
:1034B8001B881146002B3FF4B9AEC0E700293FF442
:1034C8003FAFB3E65A4B1D80FEF782FB594A5A4B71
:1034D80035881860136801331360D2E6C5F3080312
:1034E80073BB3C7884B3013C5649574A0DF1140824
:1034F800E3B20DF1160A1C465B00023301EB030B25
:1035080002EB0309514B039339F8022D50463BF85F
:10351800025D502A039B28BF50225919ADF8142088
:1035280003F092FF4046FFF7C7FD3C703580002C42
:103538003FF491AE013CC5F30802E4B2002AE3D09F
:10354800324B01221A7094E6304A6B1E01219BB25D
:10355800117043F6FE7293423FF68BAE01232D4A5B
:10356800137086E63A4B01931B785F1E0BB3394AFA
:103578000DF1140803940DF1160A02EB430B364AB9
:1035880002EB4309314B5C469B4634F8022D013F60
:1035980039F8021D5046502A594428BF5022ADF828
:1035A800142003F051FF4046FFF786FD7B1CECD149
:1035B800039C019B4FF0000C284F83F800C03B7818
:1035C8003580002B3FF442AE1E4A02EB430201E075
:1035D800A446C3B132F8021D581E9E46A942C3B282
:1035E800F6D2BCF1000F3FF431AE87F800E02DE6CB
:1035F8000F4B1D80FEF7ECFA0F4B0E4A186013684C
:10360800013313606BE63B7020E600BFD448072403
:10361800E61F0724F8480724F0480724D048072461
:10362800B9410824EC1F0724F4210724AC410824DD
:10363800E848072400490724F44807240889072490
:10364800E8000224F4200724F01F07240449072473
:1036580078370724783607247C370724F020072496
:1036680008B50F4B1A784AB10E4A4FF0000C0E49B4
:103678000120127883F800C0087002B908BDFEF76F
:10368800A7FA0A4A0A4B0B491860136801331360FA
:103698000B78002BF2D0084A13680133136008BD79
:1036A800D4480724E61F0724E1480724D8480724FC
:1036B800E4480724F0480724048907242DE9F04F3B
:1036C800B3B0FEF753FE994B1B78002B00F09681A0
:1036D800974C2378002B00F0B280964B09931B7807
:1036E800002B00F0B880944B08931B68C3B1DA69CB
:1036F80011680029C0F216811269C2F3C942002A72
:1037080040F01081EFF3108572B6099A1278002AFA
:1037180040F0848185F310882378002B40F09D8049
:10372800864B0793FFF724FB2378002B40F070812A
:10373800089B1B6823B1099B1B780BB9FFF7DEFCBC
:10374800079B1B7873B92378E3B9089B1B68002B88
:1037580072D0099B1B78002B6ED133B0BDE8F04FB7
:10376800FFF7CCBC0023079A1370089B1B68002B3B
:1037780000F05A81099B1B78002B00F04C812378BC
:10378800002BE6D0FEF724FA03466D4899460693C7
:10379800FEF7A8F9B0F5FF7FD7D840F2FF1300274E
:1037A800DFF89CB11B1AB84605971FFA83FA654BD8
:1037B8001E78079B1B78002B40F0FC8054460025A0
:1037C8000AA93046FDF7AEFD7B1C002800F03481C5
:1037D8001A079FB200F0FF8008F101031FFA83F86F
:1037E8009B0600F007810DF12E010DF176009DF882
:1037F8002D30013C009100219DF82C2005910A995B
:10380800CDE901903046FEF73BFF1DA9ADF87400E5
:103818005846FEF773F9002840F0B2804A494B4AEF
:103828000B6801330B60136801331360454B1E703E
:10383800089B1B68002B8CD133B0BDE8F08FFEF7D6
:1038480097F9FDF7F9FA012323703A4B09931B788E
:10385800002B7FF448AF384B0893089B1B68002B5C
:103868003FF45EAF099B1B78002B3FF459AF384DEE
:103878002B68002B3FF454AFFEF7AAF9354B2D689F
:1038880040F2FF111B88451B9BB203F2FF138B42CA
:103898004FEA532200F0CD80C82302FB03F341F224
:1038A800883203F5FA63934238BF13469D42FFF40A
:1038B80037AF294A44F61F611368C31A8B427FF653
:1038C8002FAF10600126254A0025089F8121136823
:1038D800386801331360224B1E70224B1D70224B37
:1038E8001D7000F0D3F88121386802F0FBFD8121BA
:1038F800386802F041FD02234FF4007281213868D4
:1039080002F00AFD099B1D700C4B1E700793174BA4
:103918001D80174B1D80174B1D70174B1D70174BC3
:103928001D70FFE62378002B9CD1F9E6E51F0724DC
:10393800E61F0724D4480724D0480724E148072471
:10394800AC410824B8410824904108249441082433
:10395800F4480724E8480724EC480724FC480724CF
:10396800E0480724F8480724F0480724E81F0724FC
:10397800F421072478370724F6210724F0200724A8
:10398800A4B2AAEB0405EDB2072D8CBF00250125D2
:10399800002C08BF0025002D7FF412AF013606F079
:1039A8000706002C3FF442AFA246079B1B78002B6A
:1039B8003FF404AF079B4FF000021A70089B1B6886
:1039C800002B3FF4FBAE099B1B78002B7FF4F6AE6F
:1039D800FFF794FBF2E6FEF7FBF8069BC01AB0F57A
:1039E800FA7FBFF423AF08F101031FFA83F89B069F
:1039F8007FF4F9AEFEF7ECF88146F4E6164B174C67
:103A080009931B78002B7FF46EAE154B089383E661
:103A1800FDF796FC8CE6FFF771FB94E6DB69012263
:103A28009A60FFF71DFE75E62378002B3FF404AF7C
:103A3800A8E641F2883339E745B9059B03F1010A45
:103A48005FFA8AF3072B05933FF6F0AE0136A246DC
:103A580006F00706A9E700BFD4480724E61F072495
:103A6800D0480724014B1860704700BFD04807248E
:103A7800704700BF704700BF704700BF704700BF66
:103A8800704700BF704700BF704700BF0B0601D4E6
:103A98000020704770B501F07F04282101260546F3
:103AA80004EB840301FB040100EBC30301F59A71E5
:103AB80083F8344183F83561A64002F06BFA28692F
:103AC80005EB84034FF6FF7221469B699A60436BAE
:103AD80023EA06034363284602F008F92B6900200D
:103AE800DA693243DA611A6942F00B021A6170BD71
:103AF80030B5012187B008200E4D01F019FC0121D5
:103B08004FF000400A2401F003FC684601F02AF84F
:103B18004FF40063694628460093059400F0E6FEDA
:103B28004FF48053694628460594009300F0DEFE62
:103B380007B030BD0028035870B5374B0C46374ED8
:103B4800002584B04FF4004001211C60356001F06D
:103B5800FFFB4FF4A06000F0B7F81CB1012C2ED089
:103B680004B070BD0125622301A88DF805408DF8C9
:103B780004308DF806508DF8075000F0AFF8632236
:103B8800032301A88DF805508DF804208DF8063020
:103B98008DF8075000F0A2F8302000F061F902A873
:103BA80000F056F93022602302A802928DF80E50D8
:103BB800ADF80C3000F0E8F8356004B070BD66234D
:103BC80001A88DF805508DF804308DF806408DF861
:103BD800074000F083F86722032301A88DF8054009
:103BE8008DF804208DF806308DF8074000F076F83F
:103BF800312000F035F902A800F02AF931226023BB
:103C080002A802928DF80E40ADF80C3000F0BCF816
:103C1800346004B070BD00BF08010224BC41082410
:103C280000F002B800F028B810B598B0044668460D
:103C380001F028FC0C9B0F484FF0E0220021A0FB6C
:103C480003039B0C013B53610523916113611369C5
:103C580023F0020313612CB11369DB03FCD5013196
:103C68008C42F9D14FF0E022136923F0010313616C
:103C780018B010BD83DE1B4310B598B004466846E3
:103C880001F000FC0C9B0F484FF0E0220021A0FB44
:103C980003039B09013B5361052391611361136978
:103CA80023F0020313612CB11369DB03FCD5013146
:103CB8008C42F9D14FF0E022136923F0010313611C
:103CC80018B010BDD34D6210024B034A0343D360B2
:103CD800704700BF0000FA0500ED00E0C37823B389
:103CE80018490F23C968C943C1F3022100B5C1F1BE
:103CF800040E827890F801C0CB400EF007010078DE
:103D08001340114A0CFA01FC00F01F0143EA0C03AE
:103D180002EB000C40091B01DBB28CF800330123D5
:103D28008B4042F820305DF804FB037801210648F7
:103D38005A0903F01F03203201FA03F340F8223036
:103D4800704700BF00ED00E000E100E0920800B518
:103D58000AD000EB820C0346A1EB000E1A684EF85D
:103D6800032004336345F9D1D0F8E823044BCA6330
:103D78009960BFF36F8FBFF34F8F5DF804FB00BFEF
:103D880000ED00E00220704770B50446FFF7FAFF27
:103D9800022823680CBF4FF0000C4FF0200C632B57
:103DA80003D9643B0CF1C00C236003F01F0201210E
:103DB8002579C3F3471301FA02F2A67905EB0C0142
:103DC8004FEA830E01EB830101F1B04066B3602D29
:103DD800066808BF1C4D26EA020618BF1B4DBCF139
:103DE800BF0F06606FEA02060D44296801EA060162
:103DF800296015D861790EF1B04E102919D0DEF876
:103E0800004001F1B0413440CEF80040DEF82040D7
:103E18002640CEF8206051F82340144341F823404F
:103E280003681A43026070BD036823EA0202026055
:103E380070BDDEF800301343CEF80030DEF82030D5
:103E48001343CEF82030EBE740000058C0FFFF577F
:103E5800002342F26002036082808371704700BFD2
:103E6800632800D9704738B5012200F01F030446C3
:103E780002FA03F5FFF786FF640902284FF0B04302
:103E880014BF4034383443F8245038BDB0F1804F63
:103E980030B557D0304CA04216D0304CA04255D047
:103EA80004F58064A04253D02D4CA0424CD004F5B8
:103EB8008064A0424ED004F54F2404F54064A0422B
:103EC8000CBF0620072000E00120264C54F82000F3
:103ED800846C856904FB03F3086805EB830C48BB15
:103EE8008C68086920434C6840EA844045F8230000
:103EF8001D4CD1E90603034348690343C8680343DB
:103F0800086A43EA0063CCF80430CB89E35C83B1E8
:103F1800C2F1090E531EE644C2F1010C0EEB030276
:103F280013F8010F10700CEB0302C889205C904253
:103F3800F4D830BD4C68086920438C68204340F0B1
:103F48008040D3E70020C0E70420BEE70220BCE79A
:103F58000320BAE70520B8E70004004000000D4040
:103F680000080040C0410824B886000083698446E0
:103F78002DE9F04F23F010038FB0A04D8E468361DA
:103F880009AC86690FCD0FC42B68360724F8023BAD
:103F98004FEA1343237008D5994B02E0013B00F028
:103FA800F580DCF818201507F8D4DCF8183043F051
:103FB8000103CCF81830DCF81830DC0708D4904B33
:103FC80002E0013B00F0E280DCF81820D007F8D5C9
:103FD800DCF81830DEF8041043F00203CCF818308F
:103FE8009EF86820DCF81830012A9EF869200CBF7A
:103FF80023F0400343F04003012A9EF86A200CBFD7
:1040080043F4804323F48043012ADEF800200CBFE8
:1040180023F4805343F4805323F44073134323F071
:10402800A4030B430906CCF81830DCF810304CBF59
:1040380043F0100323F01003B2F5407FCCF81030A2
:10404800DEE9031303F1FF3301F1FF314FEA0323E4
:1040580043EA4163DEF8141001F1FF3143EA01033A
:10406800DEF8081001F1FF3143EA0143CCF81C30B7
:1040780000F0A680DCF8C030DEF860B023F08043A2
:10408800BBF1000F02D0DEF85C201343DEF8489045
:10409800CCF8C0301BEB09037CD1CCF8C830DEF873
:1040A8003880DEF85830DEF84C500293B8F1000F33
:1040B80040F081804346DEF83C20DEF85000039251
:1040C8002AB10EAA024412F8142C43EA0213DEF8AD
:1040D8004040DEF854A02CB10EAA524412F8142C19
:1040E80043EA0223CCF8BC30464B474ABCF1804F28
:1040F80018BF9C450CBF01230023944508BF43F01B
:10410800010302F58062944508BF43F0010313B927
:104118003E4B9C4505D1DCF8083123F00303CCF86D
:1041280008313B4BDEF828109942DCF8443175D051
:1041380043F40073BCF1804F3649CCF84431364B18
:1041480004934FF00053CCF8503074D02D4B9C455D
:1041580000F013812C4B9C4500F0128103F580631D
:104168009C4500F00781294B9C4500F00C8103F524
:1041780080639C4500F00A8103F54F2303F54063F3
:104188009C450CBF06230723079356E000200FB079
:10419800BDE8F08FDEF858200EABDEF83880134407
:1041A800DEF84C50029213F8143CCCF8C830B8F141
:1041B800000F3FF47FAF0EAB2B4413F8143C7AE7A3
:1041C800DEE90813DEF81C20013B0139013ADEF86C
:1041D80060B01B0143EA01231343DEF81820013ABB
:1041E80043EA0243CCF80C30DCF8C03023F08043BB
:1041F800BBF1000F3FF44AAF45E700BF448300001E
:10420800C12709000004004000000D4000080040DC
:1042180000000530004005300080053023F40073AD
:10422800BCF1804FCCF844315A4B04934FF0005303
:10423800CCF850308AD100230793DEF86430DEF8DA
:104248003460DEE90B27DEF844E0C3F82C80CDF8B3
:1042580018E0DDF80CE0C3E90CE4DDF808E0C3F889
:1042680048E002EB070E3F0447EA820701EB8202AF
:10427800019232040EEB460642EA8E0201EB8E0EE4
:104288000592039AC3E90E9505FB0865C3E9100A70
:1042980000FB02500AFB04044FF0000A8000C3F838
:1042A80028A0CCF88470019F1F60059FCCF8887007
:1042B800C3F804E0DCF8A070DFF8DCE007EA0E07DA
:1042C80047EA084747EA860701EB8606CCF8A0705C
:1042D8009E60DCF8B06006EA0E0646EA024646EA48
:1042E800850601EB8505CCF8B060DD60CCF8AC0044
:1042F8000844DCF8F05018612848029A2840069DC6
:1043080040EA054004EB450540EA840002FB0957F2
:1043180001EB8404CCF8F0004FEA0B6002FB0B764B
:1043280001EB87075C6140EA094001EB8606DCF88F
:10433800C04001EB8501079A99611949214008435A
:10434800184941F8223040EA8505049ACCF8C05053
:104358009642DF615E623FF619AF019AB24205D21A
:10436800019A42F804AB596A8A42FAD301200FB085
:10437800BDE8F08F032307935FE7012307935CE70A
:104388000223079359E70423079356E70523079366
:1043980053E700BF00400530030080FF0300C0FF63
:1043A8000300C0C0C0410824B0F1804F30B449D0E8
:1043B8002F4B98422ED02F4B984252D003F5806352
:1043C800984250D02C4B98423ED003F580639842D7
:1043D8004BD003F54F23294A03F5406398420CBF9D
:1043E800062007200B6852F82000D3B14C68D1E9A9
:1043F800033242EA4372436843F8342003EBC403B0
:10440800CA68072A8A680CBF896949690A4330BCA7
:104418005A6070470120194A0B6852F82000002B97
:10442800E4D1CA684C68072A00688B680ED04D69C9
:1044380009692B4343EAC26343EA014340F8243045
:1044480030BC70470020E6E70420E4E78D690A697C
:104458002B4343EA024343F0605340F8243030BC16
:1044680070470220D7E70320D5E70520D3E700BF30
:104478000004004000000D4000080040C04108242E
:1044880010B4019C234310BC13430B43C0F8803085
:10449800704700BF40290CBFA030B030B2F1004FC8
:1044A80003680CBF43F0004323F0004303607047E8
:1044B800036A23F470230B4303627047036A23F0F3
:1044C80003030B430362704742EA0122024B816CEB
:1044D8000B401A43826470478080FFFFC36843F42F
:1044E8000003C360704700BF836923F00103836141
:1044F800704700BFB0F1804F024610B442D0264B3F
:10450800984213D0254B984240D003F580639842D7
:104518003ED0234B984237D003F58063984239D078
:10452800204988420CBF0621072100E00121936938
:104538001D4843F0010350F8214093619369D8075F
:1045480006D4332301E0013B19D09169C907FAD594
:10455800936923F0100393619369180706D53323F1
:1045680001E0013B0BD091690907FAD49369002156
:10457800012043F002039361A16210BC7047002040
:1045880010BC70470021D2E70421D0E70221CEE712
:104598000321CCE70521CAE70004004000000D40D4
:1045A8000008004000080D40C0410824B0F1804FC9
:1045B80070B504463CD0234B98421BD0224B9842FE
:1045C8003AD003F58063984238D0204B984231D0D6
:1045D80003F58063984233D003F54F2303F5406316
:1045E80098420CBF06230723D4F8C00010F07C5073
:1045F80006D170BD0123D4F8C00010F07C50F8D06B
:10460800D4F8C400800211D4D4F8C4501048C5F3BB
:10461800044550F8236020462B46FFF737FC01205D
:1046280000FA05F5C4F8D050B56270BD002070BD21
:104638000023E0E70423DEE70223DCE70323DAE7CD
:104648000523D8E70004004000000D4000080040A2
:10465800C0410824B0F1804FF0B5064600F0A680AE
:104668007448864244D07448864200F0D38000F5EE
:104678008060864200F0D3807048864200F0C28095
:1046880000F58060864200F0CC8000F54F206C4C2D
:1046980000F5406086420CBF06200720402954F8E8
:1046A80020502BD1D6F8A00010F4FE007DD0D6F80B
:1046B800A40010F07F0078D0D6F8A470D6F8A40033
:1046C800C7F30527C40104D5D6F8A0000028C0F216
:1046D800AA80E86BAC6807FB00F004EB8004206854
:1046E80000F080401060E0B1206820F060401BE0DE
:1046F8000120534C402954F82050D3D0412957D099
:10470800686B884240F28480686C00272C6901FB42
:1047180000F004EB8004206800F08040106000285E
:10472800E2D12068C0F38A405060206800F0005051
:104738009060206800F000401061A088D061606837
:1047480000F47020D060050C606800F4801050619F
:10475800606800F400109061E07900F07F0010625A
:10476800384810F805C0656805F000455562BCF189
:10477800000F0ED003F1FF3E04F1070C63461CF84E
:10478800015F063B0EF8015FD5891B1B455D9D4205
:10479800F4D8402938D041294FF001003CD01F29D6
:1047A80029D800FA01F1C6F89810F0BD0020A0E75A
:1047B800D6F8B00010F4FE00F7D0D6F8B40010F028
:1047C8007F00F2D0D6F8B470D6F8B400C7F3052746
:1047D800C00109D5D6F8B000002805DA286B0138E1
:1047E800B8428CBF01370027286CEC6807FB00F043
:1047F80004EB80048FE701F01F0100FA01F1C6F80D
:104808009C10F0BD042074E70120C6F8A870F0BD24
:104818000020F0BD02206CE7C6F8B870F0BD032098
:1048280067E7052065E7E86A0138B8428CBF0137B9
:1048380000274EE70004004000000D40000800403B
:10484800C0410824B8860000436C03F0070003F455
:10485800E06210B4C1E9000203F0180403F020027A
:1048680003F04000C1E9024203F0800203F400644F
:10487800C1E9040203F4805203F40050C1E906427E
:1048880003F48042C3F3064310BC8B62C1E90802FB
:10489800704700BF036C10B4C3F30620DCB203F406
:1048A8000042C3F30743C1E90040C1E9022310BC39
:1048B800704700BF402904D0D0F8B40000F07F0052
:1048C8007047D0F8A40000F07F007047D0F8C4000B
:1048D80000F03F00704700BF036D31EA03030CBFCF
:1048E80001200020704700BF016570472DE9F04F97
:1048F800964A8DB084468E4602F10C0704AB07AE8B
:10490800934DDEF80040654407CA03C31A700FCF01
:104918000FC63B683380002C00F0BB804FEA952817
:104928000CAB4FF0000B012703EB480A4344CDF8CA
:1049380000B003935B4607FA03F8B5F5105F08EA81
:1049480004010AD23AF8142C18EA020F05D011B162
:1049580007FA0BF200920BF1010B002900F094808A
:10496800DEF80400122819D87A4AC240D60715D5AD
:1049780003F007064FF00F091A074FEA860609FAEF
:1049880006F940F19580DCF8242022EA0909DEF8CE
:104998001420B24042EA0902CCF8242020F0100288
:1049A800013A012A00F29580DCF80420C0F30016D1
:1049B80022EA08029E406FEA08083243CCF8042035
:1049C80000F0030203265800DCF80090B5F5105FEC
:1049D80006FA00F602FA00F229EA060942EA090292
:1049E800CCF80020DEF80820DCF80C9002FA00F27F
:1049F80029EA060942EA0902CCF80C20DEF80C2064
:104A0800DCF8089002FA03F209EA080842EA080208
:104A1800CCF80820DCF82C2022EA06063CD23AF82A
:104A2800142C114238D04C4A944508BF01290CBFB8
:104A38000122002201925CD1484A4FF00049D2F885
:104A4800E8100291D2F8F410DEF81020DFF8108197
:104A580002EA080818F5803F6DD002F07F4821EA85
:104A68000901B8F17F4F08BF02F00F0282401643D8
:104A7800029A22EA0902019870B33848C0F8E8207F
:104A8800C0F8F410CCF82C60013334FA03F27FF448
:104A980052AF0DB0BDE8F08FDEF8102002F07F4174
:104AA800B1F17F4F08BF02F00F0282401643E9E7D9
:104AB800DCF8202022EA0909DEF81420B24042EA94
:104AC8000902CCF8202020F01002013A012A7FF6D2
:104AD8006BAF6FEA080873E70398DFF8808010F877
:104AE800200C400908EB8000C0F8E420C0F8F01062
:104AF800C8E7039A194912F8209C4FEA591201EBAA
:104B08008202D2F8E4100291D2F8F010124A9445C9
:104B1800009A08BF5208B9F11F0F02D802FA09F922
:104B280092E7B9F13F0F94BFA9F12009A9F1400913
:104B380002FA09F988E702F00F0241EA0901824006
:104B48001643029A42EA090295E700BF588300001B
:104B580000D8FCA70D00040000480358002403589F
:104B68000000FFFF002301210F22C0E90033C0E944
:104B78000231C0E904327047024B0349034A996085
:104B88009A6070470080115123016745AB89EFCDCA
:104B9800024A136843F00103136070470080115103
:104BA80010B44FF0FF33144C013B626801D0D207B8
:104BB800FAD4F3B1104A536813F07E0F16D1146873
:104BC8004FF0FF3324F0020414601061013B506879
:104BD80001D0C007FAD463B1074B5A6812F07E0FB0
:104BE80004D15B69032010BC0B607047012010BC26
:104BF8007047022010BC704700801151102817D947
:104C0800402818BF202801D0802879D1012946D012
:104C1800994BDA6D02F0E002824200F0BE80964ABB
:104C2800936D03439365D36D30EA0303FBD070475C
:104C3800924BC340DA077DD501290ED08E4BDA6D31
:104C480002F01F0282424BD08B4A936D0343936557
:104C5800D36D30EA0303FBD07047874A936D23EA8C
:104C680000039365D36D30EA0303FBD1D36CDB03F8
:104C780000D57047D36C804943F48013D364D36C58
:104C880043F00103D364CB6CD803FCD5CB6C43F061
:104C98001003CB64CB6C43F48073CB647047764AC3
:104CA800936D23EA00039365D36D30EA0303FBD1C8
:104CB800D36C5B03DDD4D36C6F4943F48003D364B6
:104CC800D36C43F00403D364CB6C5803FCD5CB6C92
:104CD80043F04003CB64CB6C43F48063CB647047F0
:104CE800DA6C22F48072DA64DA6C22F01002DA6488
:104CF800DA6C22F00102DA64DA6CD203FCD4A3E79E
:104D0800B0F5007F18BFB0F5807F10D1012923D0FE
:104D1800594BDA6D02F4E062824276D0564A936DBE
:104D280003439365D36D30EA0303FBD07047B0F5B6
:104D3800806FEBD0B0F5805F3FD0B0F5006F98D1B1
:104D48004D4A0129936D00F0908043F40063936508
:104D5800D36D1B05FCD48CE7474A936D23EA000307
:104D68009365D36D30EA0303FBD1D36C9B0380D4E6
:104D7800D36C414943F40013D364D36C43F002036A
:104D8800D364CB6C9803FCD5CB6C43F02003CB6485
:104D9800CB6C43F40073CB647047DA6C22F4806206
:104DA800DA64DA6C22F04002DA64DA6C22F0040287
:104DB800DA64DA6C5203FCD431E7012935D12E4A82
:104DC800936D23F480539365D36DDB04FCD5D2F83F
:104DD800B830294943F01003C2F8B830D2F8B830D7
:104DE80043F00103C2F8B830D1F8B8301807FBD542
:104DF800D1F8B83043F00203C1F8B830D1F8B83070
:104E080043F00403C1F8B8307047DA6C22F400723A
:104E1800DA64DA6C22F02002DA64DA6C22F0020238
:104E2800DA64DA6C9203FCD478E7134BD3F8B82031
:104E380022F00402C3F8B820D3F8B82022F0020206
:104E4800C3F8B820D3F8B82022F00102C3F8B8207C
:104E5800D3F8B8201207FBD4996D074A41F4805162
:104E68009965D36DD804FCD4704723F40063936527
:104E7800D36D1905FCD570470010035816010100C1
:104E880038B504460D46FEF77DFF124A124B02283C
:104E980018BF1346114A012C196821F00101196045
:104EA800136923F0040313610ED02CB1012D09D02E
:104EB80040BF20BF20BF38BD1369012D23F0020376
:104EC8001361F5D130BF38BD136943F00203136194
:104ED800ECE700BF281003580810035800ED00E065
:104EE80028B9224A136B23F01403136370471F4A2F
:104EF8001028136B23F4807310B4136329D01B4953
:104F08004FF0E0201A4A00240B6B43F004030B63B4
:104F180047F23051D0F8FC3D43F08073C0F8FC3DB7
:104F28005460136843F001031360536819445368CD
:104F38008B42FCD34FF0E0210C4A10BCD1F8FC3D69
:104F480023F08073C1F8FC3D136B43F48073136343
:104F58007047136B5B0703D5136B23F004031363CC
:104F6800024A136B43F010031363C8E700000358A9
:104F7800001000E02DE9F04F87B01C468B464649EB
:104F880001938046454B9246C3184FF000006BF1E1
:104F98000002994270EB02037AD3414B41491AEB64
:104FA800030364F10002994270EB020370D3B0EB83
:104FB8000A034FEA843907464FEA8A3664EB44020B
:104FC80049EA9A494024120242EA13621B020592F6
:104FD80004934FF0FF33CDE9023019E0B0EB0A003B
:104FE80061EB0301029B8342039B8B4105D3109B1A
:104FF80002901C60119B03911D60049B9E19059BE8
:1050080049EB0309013C67F1000754EA070329D07B
:1050180042465B4630464946FBF77EFCFBF726FCDA
:10502800FBF75AFC054640F6FD7EA0FB08014FEA57
:10503800152C224605FB0B113B46ACF1020CF4453E
:10504800DBD8FBF769FC019B000A40EA0160090A0A
:10505800824573EB0102C1D3BAEB0000019B63EBFD
:105068000101BFE7119B40F2FF7101201B685A0A3A
:10507800531E129A8B4228BF0B461360109B109A3E
:105088001B68013B1360119B119A1B689B011360FD
:1050980007B0BDE8F08F00BFC04DC103C0BDF0FF31
:1050A800005D1EEE80D99F38F0B589B000249DF8C8
:1050B80040100794CDE90544B1B9484A136923F46F
:1050C80080231361136943F4003313611369D90210
:1050D800FCD41369012043F480331361136A23F469
:1050E8000023136209B0F0BD194606AB07AE0546AA
:1050F800019305AB104602960093DDE90E23FFF7F6
:1051080039FF012802D0204609B0F0BD334B344E98
:105118001F695A69079A3E40C2F30B01069A314348
:1051280022F07C42059E196141F2707142EA866262
:105138005A611A6A42F400221A624FF0E022D2F849
:10514800FC3D43F08073C2F8FC3DA2F55042546028
:10515800136843F0010313605368194453688B4282
:10516800FCD34FF0E0241D4E002741F27071D4F8B3
:10517800FC3D23F08073C4F8FC3D336923F480338D
:105188003361336923F040531D433561D4F8FC3D46
:1051980043F08073C4F8FC3DA4F55044576013688D
:1051A80043F0010313605368194463688B42FCD3CE
:1051B8004FF0E021094AD1F8FC3D23F08073C1F893
:1051C800FC3D136923F4003313611369DB02FCD53A
:1051D800136943F48023136109B0F0BD000003583C
:1051E80000F0FFFF034A936B23F47C13034393639C
:1051F800704700BF00000358044B5A6E02435A66BA
:105208005A6E22EA00005866704700BF0000035833
:10521800064BD3F8A4200243C3F8A420D3F8A42053
:1052280022EA0000C3F8A400704700BF000003583A
:10523800064BD3F8B4200243C3F8B420D3F8B42003
:1052480022EA0000C3F8B400704700BF000003580A
:10525800064BD3F8E0200243C3F8E020D3F8E0205F
:1052680022EA0000C3F8E000704700BF00000358BE
:10527800064BD3F850210243C3F85021D3F85021EC
:1052880022EA0000C3F85001704700BF000003582D
:10529800064AD2F8883019B11843C2F88800704716
:1052A80023EA0000C2F88800704700BF00000358D6
:1052B800064AD2F8903019B11843C2F890007047E6
:1052C80023EA0000C2F89000704700BF00000358AE
:1052D800064AD2F8B03019B11843C2F8B000704786
:1052E80023EA0000C2F8B000704700BF000003586E
:1052F800064AD2F8D03019B11843C2F8D000704726
:1053080023EA0000C2F8D000704700BF000003582D
:10531800064AD2F8E43019B11843C2F8E4007047DD
:1053280023EA0000C2F8E400704700BF00000358F9
:10533800064AD2F8E83019B11843C2F8E8007047B5
:1053480023EA0000C2F8E800704700BF00000358D5
:10535800064AD2F8003119B11843C2F80001704763
:1053680023EA0000C2F80001704700BF000003589C
:10537800064AD2F8403119B11843C2F840017047C3
:1053880023EA0000C2F84001704700BF000003583C
:10539800044AD2F8A83023F00F030343C2F8A83018
:1053A800704700BF00000358034A936F23F4E023BB
:1053B80043EA00239367704700000358034A936F3A
:1053C80023F4E06303439367704700BF000003586A
:1053D800034AD36F23F0E04343EA0053D36770478F
:1053E80000000358034AD36F23F4E00343EA003371
:1053F800D367704700000358034A536F23F07003C4
:1054080003435367704700BF00000358044AD2F8AB
:10541800C03023F0E04343EA0053C2F8C03070477D
:1054280000000358044AD2F8C03023F4E00343EAEA
:105438000033C2F8C030704700000358044AD2F85D
:10544800C03023F4E04343EA0013C2F8C030704789
:1054580000000358044AD2F8C03023F0700343EA2E
:105468001013C2F8C030704700000358044AD2F83D
:10547800B83023F070030343C2F8B830704700BF58
:1054880000000358F0B5B74D87B0044606AE95E85E
:105498000F00103506E90F006B46B34A95E8030084
:1054A80083E80300136803F04053B3F1405F00F052
:1054B8005281AE480027AE49B3F1005F18BF0846D5
:1054C800A94D00236A686968920E21F07C41013277
:1054D800A1FB000601FB0761800B40EA8140890BB4
:1054E800FBF71AFA6B6B13F03F0302D0B0FBF3F330
:1054F80023609D4B5B6B13F47C5FC3F3052202D0E2
:10550800B0FBF2F26260984B5B6B13F47C1FC3F341
:10551800054202D0B0FBF2F0A060934B1B6903F088
:105528004053B3F1405F00F0138190480027904941
:10553800B3F1005F18BF08468B4D00236A6969699B
:10554800920E21F07C410132A1FB000601FB0761AC
:10555800800B40EA8140890BFBF7DEF9AD6B15F053
:105568003F0540F0DB80E5687F4B9B6B13F47C5F65
:10557800C3F3052202D0B0FBF2F222617A4B9B6B97
:1055880013F47C1FC3F3054202D0B0FBF2F0606154
:10559800754B1B6A03F04053B3F1405F00F0D580B0
:1055A800724800277249B3F1005F18BF08466E4E73
:1055B8000023726A716A920E21F07C410132A1FBCC
:1055C800000C01FB07C1800B40EA8140890BFBF707
:1055D800A3F9F36B13F03F0302D0B0FBF3F3A3611D
:1055E800614BDB6B13F47C5FC3F3052202D0B0FB85
:1055F800F2F2E2615C4BDB6B13F47C1FC3F30542F0
:1056080002D0B0FBF2F02062574A06A95848136C42
:10561800564EC3F303530B4413F8103CD840136C95
:10562800126BC3F3031302F040620B44B2F1006F34
:1056380013F8103C26FA03F600F08480B2F1806F6C
:1056480070D0B2F1406F00F089800246606246492E
:1056580006AF0B6C03F00F033B4413F8103CDA4021
:105668000B6CC3F303433B4413F8103CDD400B6C55
:10567800C3F303233B4413F8103C22FA03F3C4E9B1
:105688000A33D1F86C7117F4003F14BF2F46174640
:105698002763D1F86C71FF0347D50A6C06A9C2F3DA
:1056A80003620A4412F8102C25FA02F22E4906AFBA
:1056B800C4E90D23C4E91123C4E90F334D6C05F087
:1056C80007053D4415F8185C23FA05F5E5644D6CAB
:1056D800C5F302253D4415F8185C23FA05F5256540
:1056E8004D6CC5F302453D4415F8185CEB40636505
:1056F8004B6CC3F302633B4413F8183CDA40A265D1
:10570800D1F8643103F44053B3F5405F16D0B3F5D4
:10571800005F08BF3046E06507B0F0BDB0FBF5F5A7
:10572800E56021E73246666291E7096C06ADC1F390
:105738000331294411F8101CCA40B7E70D4BE36543
:1057480007B0F0BD0B4A626281E70A4800272EE7DE
:1057580008480027F0E607480027B1E62268626299
:1057680075E700BF78830000000003580024F400A8
:105778000090D00340787D01634B4FF0E020634AEE
:10578800196C21F00F0130B419640024196C21F44C
:10579800706141F480711964196C21F4704141F40D
:1057A80080511964196C21F0706141F0807119649D
:1057B800D0F8FC3D43F08073C0F8FC3D546013689A
:1057C80043F001031360516801F5167153688B4269
:1057D800FCD34FF0E02C4C4B4D494FF41634DCF819
:1057E800FC0D20F08070CCF8FC0D586C00F0F830FF
:1057F80040F004305864186801405868002041F0AF
:10580800030119605C60196841F400211960DCF833
:10581800FC3D3E4943F08073CCF8FC3D506041F2BA
:105828007070136843F001031360536818444B68A1
:105838008342FCD34FF0E0233348002541F27072D5
:10584800D3F8FC4D24F08074C3F8FC4D046824F4AC
:1058580080340460046824F040540460D3F8FC0DDC
:1058680040F08070C3F8FC0D4D600B68274843F08A
:1058780001030B604B681A4443689342FCD34FF012
:10588800E0222149D2F8FC3D23F08073C2F8FC3DA8
:105898000B6823F400330B600B68DB02FCD50B6844
:1058A8004FF0E020194A002443F480230B60D0F81D
:1058B800FC3D43F08073C0F8FC3D5460136843F02E
:1058C80001031360516801F5167153688B42FCD3CC
:1058D8004FF0E0210C4AD1F8FC3D23F08073C1F869
:1058E800FC3D536B23F03F0343F001035363136BF9
:1058F80043F040731363136B03F04063B3F1406FDD
:10590800F9D130BC704700BF00000358001000E018
:1059180000F0FFFF30B5444A04469BB00D466B4685
:1059280092E80300626883E8030022F060023F49BE
:10593800D5E90130024302A8626022681140EA6892
:105948001343AA6913432A6913436A690B43236003
:10595800A36823F005031343A360FFF793FD344BBB
:105968009C421FD003F580639C421BD003F58063E3
:105978009C4217D003F580639C4213D02D4A03F54F
:1059880000639C4218BF94420CD003F580639C428C
:1059980008D0294B9C423BD003F580639C4237D00A
:1059A800159A00E0169A236859011FD422F00303C0
:1059B800296803EB920202EB8202B2FBF1F31F4863
:1059C8006425A0FB03125209110105FB123322685A
:1059D800520114D5DB003233A0FB03235B09082BEB
:1059E8000CBF1031194361611BB030BD52082B68E0
:1059F80002EB820202EB8202B2FBF3F3DFE71B0148
:105A08003233A0FB032301EB531161611BB030BD9E
:105A18000B4B1AA9109A5B6FC3F302730B4413F86C
:105A2800683CDA40BFE700BF90830000C1FFFFFB7E
:105A380000E00D4000F00D4000C400401F85EB5110
:105A48000000035800234FF4165106228361C0E971
:105A58000013C0E90233C0E904237047036819B191
:105A680043F001030360704723F0010303607047AC
:105A7800C1F3080101617047C3680B4214BF0120DC
:105A8800002070479C46C3788BB900EB82000CF16C
:105A98000302921010B4D0F8DC4005D0013351F85D
:105AA800040B9A422060F9D1002010BC70470020F6
:105AB800704700BF02F1030C5FEAAC0C10B4D0F8D9
:105AC800DC400BD00A460023013320689C4542F88D
